:100000000C94C4030C94EC030C94EC030C94EC03DC
:100010000C94EC030C94EC030C94EC030C94EC03A4
:100020000C94EC030C94EC030C94870C0C94F90CDA
:100030000C94EC030C94EC030C94EC030C94EC0384
:100040000C94EC030C94EC030C94EC030C94EC0374
:100050000C94EC030C94EC030C94EC030C948F06BE
:100060000C94EC030C94EC030C94EC030C94EC0354
:100070000C94EC030C94EC030C94EC030C94EC0344
:100080000C94EC030C94EC030C94EC030C94EC0334
:100090000C94EC030C94EC030C94EC030C94EC0324
:1000A0000C94EC030C94EC030C94EC03F0F89C8E91
:1000B0008783878E9CF8F00000FEFF030303030391
:1000C000070EFCF80000FEFF0303030303070EFC0A
:1000D000F80000FFFF00000000000000FFFF00002C
:1000E000FEFF8383838383C7EE7C380000F8FC0E19
:1000F00007030303070EFCF800003F7FE0C0808089
:10010000C0E07F3FFFFF01010101010101FFFF008E
:1001100000FFFF0C0C0C0C1C3E77E3C100007FFFBE
:10012000C0C0C0C0C0E0703F1F00001F3F70E0C0F3
:10013000C0C0E0703F1F00007FFFC1C1C1C1C1E36B
:10014000773E1C00001F3F70E0C0C0C0E0703F1F42
:10015000000000000001FFFF01000000D5F08D1439
:10016000A1C881CFD9F1AF200001020408102040BE
:100170008000000000003E5B4F5B3E3E6B4F6B3EDD
:100180001C3E7C3E1C183C7E3C181C577D571C1C9A
:100190005E7F5E1C00183C1800FFE7C3E7FF0018F5
:1001A000241800FFE7DBE7FF30483A060E262979DE
:1001B0002926407F050507407F05253F5A3CE73C3F
:1001C0005A7F3E1C1C08081C1C3E7F14227F2214F0
:1001D0005F5F005F5F06097F017F006689956A6047
:1001E0006060606094A2FFA29408047E040810205E
:1001F0007E201008082A1C08081C2A08081E101057
:1002000010100C1E0C1E0C30383E3830060E3E0E00
:1002100006000000000000005F000000070007006B
:10022000147F147F14242A7F2A1223130864623651
:10023000495620500008070300001C2241000041DD
:10024000221C002A1C7F1C2A08083E080800807017
:10025000300008080808080000606000201008044A
:10026000023E5149453E00427F400072494949469D
:100270002141494D331814127F1027454545393C1B
:100280004A49493141211109073649494936464908
:1002900049291E000014000000403400000008142A
:1002A00022411414141414004122140802015909A3
:1002B000063E415D594E7C1211127C7F49494936F8
:1002C0003E414141227F4141413E7F494949417F71
:1002D000090909013E414151737F0808087F004127
:1002E0007F41002040413F017F081422417F404070
:1002F00040407F021C027F7F0408107F3E41414145
:100300003E7F090909063E4151215E7F09192946B0
:10031000264949493203017F01033F4040403F1FC6
:100320002040201F3F4038403F63140814630304FB
:100330007804036159494D43007F4141410204085B
:100340001020004141417F0402010204404040402E
:1003500040000307080020545478407F2844443864
:100360003844444428384444287F385454541800AE
:10037000087E090218A4A49C787F0804047800442D
:100380007D40002040403D007F1028440000417F18
:1003900040007C047804787C0804047838444444A1
:1003A00038FC1824241818242418FC7C0804040899
:1003B000485454542404043F44243C4040207C1CB2
:1003C0002040201C3C4030403C44281028444C90A5
:1003D00090907C4464544C440008364100000077FF
:1003E0000000004136080002010204023C262326D8
:1003F0003C1EA1A161123A4040207A38545455590C
:100400002155557941215454784121555478402043
:10041000545579400C1E527212395555555939545C
:1004200054545939555454580000457C41000245F4
:100430007D420001457C40F0292429F0F028252840
:10044000F07C545545002054547C547C0A097F4963
:1004500032494949323248484832324A4848303AAB
:100460004141217A3A42402078009DA0A07D394444
:100470004444393D4040403D3C24FF2424487E49CB
:1004800043662B2FFC2F2BFF0929F620C0887E09FD
:100490000320545479410000447D413048484A3299
:1004A000384040227A007A0A0A727D0D19317D2681
:1004B00029292F28262929292630484D4020380867
:1004C00008080808080808382F10C8ACBA2F1028E8
:1004D00034FA00007B000008142A142222142A1483
:1004E000089500220095AA005500AAAA55AA55AA67
:1004F000000000FF00101010FF00141414FF001083
:1005000010FF00FF1010F010F0141414FC0014146D
:10051000F700FF0000FF00FF1414F404FC1414178C
:10052000101F10101F101F1414141F00101010F0B3
:10053000000000001F101010101F10101010F010FD
:10054000000000FF101010101010101010FF10000D
:100550000000FF140000FF00FF00001F1017000044
:10056000FC04F414141710171414F404F40000FF1E
:1005700000F714141414141414F700F714141417B7
:100580001410101F101F141414F4141010F010F095
:1005900000001F101F0000001F14000000FC1400CA
:1005A00000F010F01010FF10FF141414FF141010BE
:1005B000101F00000000F010FFFFFFFFFFF0F0F041
:1005C000F0F0FFFFFF0000000000FFFF0F0F0F0F14
:1005D0000F38444438447C2A2A3E147E0202060620
:1005E000027E027E0263554941633844443C044024
:1005F0007E201E2006027E020299A5E7A5991C2AEC
:10060000492A1C4C7201724C304A4D4D30304878AA
:100610004830BC625A463D3E494949007E010101CD
:100620007E2A2A2A2A2A44445F444440514A4440AC
:1006300040444A51400000FF0103E080FF000008F1
:10064000086B6B083612362436060F090F060000B9
:1006500018180000001010003040FF0101001F01B9
:10066000011E00191D1712003C3C3C3C000000001C
:10067000000D10101000001010000010103838008D
:1006800038447CD6FEFFFF6C7C3838101000000028
:100690000000000000000000000000000000000159
:1006A0000100000000000010100000101038381089
:1006B0001000000038447CD6FEFFFF6C7C383810F8
:1006C000100000000000000000000000000000001A
:1006D0000000000101000000000000101038381078
:1006E000100000101000000038447CD6FEFFFF6CA4
:1006F0007C383810100000000000000000000000EE
:1007000000000000000000010100000000000008DF
:100710000B000202020100090400000102020000B5
:10072000052400100105240101010424020605240A
:100730000600010705810310004009040100020AB8
:100740000000000705020240000007058302400088
:10075000000403090412010002EF020140412336A4
:100760008000010102030141726475696E6F204CC3
:100770004C430041726475696E6F204C656F6E6109
:1007800072646F00B512701211241FBECFEFDAE051
:10079000DEBFCDBF11E0A0E0B1E0EAE4FCE202C0C0
:1007A00005900D92A63EB107D9F728E0A6EEB1E07C
:1007B00001C01D92A436B207E1F713E0C3ECD3E009
:1007C00004C02197FE010E94E014C23CD107C9F782
:1007D0000E94290F0C9418160C940000CF92DF92FF
:1007E000EF92FF920F931F93CF93DF936C017A01E7
:1007F0008B01C0E0D0E0CE15DF0589F0D8016D9106
:100800008D01D601ED91FC910190F081E02DC601A2
:100810000995892B11F47E0102C02196ECCFC70106
:10082000DF91CF911F910F91FF90EF90DF90CF90CC
:1008300008953FB7F8948091EC019091ED01A0915B
:10084000EE01B091EF0126B5A89B05C02F3F19F02E
:100850000196A11DB11D3FBFBA2FA92F982F882740
:10086000820F911DA11DB11DBC01CD0142E0660F9B
:10087000771F881F991F4A95D1F708950895089505
:1008800080E090E00895FC017583648370A3678F16
:10089000778766870895FC017187608774A363A3D7
:1008A000738B628B0895FC0173836283768F658FEF
:1008B000758764870895FC017783668372A361A3BB
:1008C000718B608B0895FC01848195810895FC01F2
:1008D000808591850895FC01828193810895FC01B2
:1008E000868197810895EF92FF920F931F93CF9384
:1008F000DF93EC017B018A01E881F9810684F785A9
:10090000E02D0995E881F9810088F189E02DB80191
:10091000CE010995FAA2E9A21CA30BA3F98AE88AE1
:100920001B8B0A8BDF91CF911F910F91FF90EF905E
:10093000089504970C947304DC01CB01BA01ED9186
:10094000FC9111970680F781E02DAC01CD0109944F
:1009500004970C949C0408950895FC0175836483A6
:100960000895FC01718760870895FC017383628399
:100970000895FC01778366830895FC018481958145
:100980000895FC01808591850895FC018281938101
:100990000895FC01868197810895FC01628173812D
:1009A000848195810895FC01668177818085918598
:1009B0000895FC01349777836683518740870895B3
:1009C000FC01778366835187408708950895DC0191
:1009D000CB01BA01ED91FC9111970680F781E02DD2
:1009E000AC01CD01099404970C94E7040E941316FE
:1009F0008F929F92AF92BF92CF92DF92EF92FF922F
:100A00006B017C010E9419044B015C01C114D104EB
:100A1000E104F104F1F00E941904DC01CB01881912
:100A20009909AA09BB09883E9340A105B10570F355
:100A300021E0C21AD108E108F10888EE880E83E0AF
:100A4000981EA11CB11CC114D104E104F10419F7D2
:100A5000DDCFFF90EF90DF90CF90BF90AF909F9051
:100A60008F9008952FB7F8946091E8017091E90193
:100A70008091EA019091EB012FBF08957F928F92B0
:100A80009F92AF92BF92CF92DF92EF92FF920F931D
:100A90001F93CF93DF93EC018889882319F10A858E
:100AA0001B850E943205F801C080D180E280F3806E
:100AB0004B015C018C189D08AE08BF08C480D5802E
:100AC000E680F780C814D904EA04FB0458F4608374
:100AD0007183828393838E858F5F8E879F8589172D
:100AE00008F01E86BE84EC84FD84E881F9810484CC
:100AF000F585E02DCE0109956C01E881F98102842C
:100B0000F385E02DCE010995AC01E114F10409F45F
:100B1000EFC0F701849131963491F2E0EF0EF11CB1
:100B2000082F10E0BB2019F16B2D70E0660F771FC6
:100B3000E32FE695E695E695AE2FB0E0E1E0F0E034
:100B4000932F977011F4E0E0F0E0EA0FFB1F0E9F87
:100B5000D0010F9FB00D1E9FB00D11246A9FF001B0
:100B60006B9FF00D7A9FF00D1124EE0EFF1EFA011F
:100B7000E00FF11F1E161F060CF0BAC040385105D9
:100B80000CF0B6C0B601630F711D161617060CF0F7
:100B9000AFC020E4C216D1040CF0AAC0E114F104E5
:100BA00009F4A6C0B601D7FE04C0662777276C19E2
:100BB0007D09962F9770992EB601D7FE02C0695F06
:100BC0007F4FA3E075956795AA95E1F7B62ED7FEFE
:100BD00008C0992031F0BB24BA94B60E98E0991958
:100BE000992E57FF05C0AA27BB27A41BB50B02C02F
:100BF000A0E0B0E0E038F1051CF090E8941B01C0E3
:100C0000982F9A1B6B2D0B2C000C770BEFEFBE1659
:100C10001CF4F62FF09501C0F0E021E0E32FE7701F
:100C200009F420E0E32FE695E695E6952E0F620F96
:100C3000711D6930710514F028E02B192F1B3F2F0F
:100C40003B0D60E83603400D511D11244A0F5B1F18
:100C5000692F70E06D01F89FC00CD11C1124F601C2
:100C6000EE0FFF1FEE0DFF1DDA01AC50BE4F4C58CA
:100C70005D4F80E8E82EF12CE61AF70A061B170BE9
:100C8000000F111F61E070E0092C01C0660F0A948B
:100C9000EAF7792E822ECF93DF93EA01A590C590D3
:100CA000992059F0A69E5001C69E600137302CF461
:100CB0007881D0947D217B29799333233AF07C91FC
:100CC000C0947C217A297D930C94670611969A959D
:100CD00029F72A9551F0972D33951124E00FF11D36
:100CE000AE0DB11DCE0DD11DD9CFDF91CF91112405
:100CF000E881F9810480F581E02DCE01DF91CF916B
:100D00001F910F91FF90EF90DF90CF90BF90AF9029
:100D10009F908F907F90099402970C943E051F92AC
:100D20000F920FB60F9211242F933F938F939F939F
:100D3000AF93BF938091E8019091E901A091EA01FE
:100D4000B091EB013091E70123E0230F2D3720F420
:100D50000196A11DB11D05C026E8230F0296A11D15
:100D6000B11D2093E7018093E8019093E901A093DE
:100D7000EA01B093EB018091EC019091ED01A0911B
:100D8000EE01B091EF010196A11DB11D8093EC0120
:100D90009093ED01A093EE01B093EF01BF91AF915D
:100DA0009F918F913F912F910F900FBE0F901F90A9
:100DB00018952D9A0895BC0180E090E00C94F804F9
:100DC0008FB12CB193B130E020953095207433274A
:100DD000A90123E0559547952A95E1F7292F30E0A1
:100DE0002095309520713327359527953595279592
:100DF000242B8095807F822B0895EF92FF920F9392
:100E00001F93CF93DF93EC010E94E00685FF27C07C
:100E1000A881B98116960D911C9117971C96ED919A
:100E2000FC911D97CE0109957C01E881F98102842E
:100E3000F385E02DCE01099502975CF0E881F981F8
:100E40000284F385E02DCE010995BC016150710942
:100E500002C060E070E0A701CE01F80109950E9490
:100E6000E00686FF28C0A881B98116960D911C91D5
:100E700017971C96ED91FC911D97CE0109957C0169
:100E8000E881F9810284F385E02DCE01099582374E
:100E900091055CF4E881F9810284F385E02DCE01AF
:100EA0000995BC016F5F7F4F02C063E770E0A70147
:100EB000CE01F80109950E94E00687FF27C0A881AE
:100EC000B9811696ED90FC9017971C96ED91FC91C8
:100ED0001D97CE01099502975CF0E881F9810484A1
:100EE000F585E02DCE0109958C010150110902C054
:100EF00000E010E0E881F9810284F385E02DCE0165
:100F00000995A801BC01CE01F70109950E94E006F0
:100F100084FF2DC0A881B9811696ED90FC9017979B
:100F20001C96ED91FC911D97CE010995C6975CF436
:100F3000E881F9810484F585E02DCE0109958C01C5
:100F40000F5F1F4F02C007E310E0E881F9810284C0
:100F5000F385E02DCE010995A801BC01CE01F70172
:100F6000DF91CF911F910F91FF90EF900994DF9146
:100F7000CF911F910F91FF90EF90089583B7817FDC
:100F800083BF83B7816083BF889583B78E7F83BF1C
:100F900008958EBD00000DB407FEFDCF08956038A2
:100FA0007105D0F440345105B8F4E9E6F1E080E190
:100FB000849FD001A0781124A60F4770E40FF11D83
:100FC0008491AC50BE4F222319F06C91862B03C044
:100FD00080956C9186238C9308952F923F924F9227
:100FE0005F926F927F928F929F92AF92BF92CF92B9
:100FF000DF92EF92FF920F931F93CF93DF93CDB7C2
:10100000DEB729970FB6F894DEBF0FBECDBFFC0147
:101010006A3069F4248D808D918D38E0239F800D96
:10102000911D1124918F808F178A168AAAC06D3066
:1010300009F4A7C099878887F48C338C228C608C44
:10104000718C0689178900381105C4F0A885B98507
:101050005C962C915C97422F50E056968D919C9116
:101060005797B6E02B9F800D911D1124E885F985D7
:10107000978B868B258D21116EC083C0F0E46F168F
:10108000710424F7C80125E0F29E800D911D112402
:1010900018161906DCF68F2D90E09C838B83C30114
:1010A000A8E0FA9E800D911D11241816190674F6F9
:1010B000B5E06B9FB0011124FB01EF58FE4FFA839E
:1010C000E98330E08885998504969E838D83E98144
:1010D000FA81E490353009F4E12C430188E0482E90
:1010E000E0FC02C0532C01C0522C51100BC0321036
:1010F00009C0E6944A948B819C81880E991E411008
:10110000EFCF1BC068018C2D801B8F1590F7540109
:101110008A2D88198F1568F4252DA501B6018D81BA
:101120009E813F830E94CF079FEFA91AB90A3F8192
:10113000EFCFAFEFCA1ADA0AE6CF3F5FEB81FC814F
:101140000E0F1F1F89819A8101969A8389833630F9
:1011500009F0BDCF7BCF6AEF64039001659F300D2E
:10116000112420583F4F281739075CF4A885B9850A
:10117000ED91FC9111970190F081E02D6AE0CD0195
:10118000099581E090E029960FB6F894DEBF0FBE76
:10119000CDBFDF91CF911F910F91FF90EF90DF9026
:1011A000CF90BF90AF909F908F907F906F905F9007
:1011B0004F903F902F9008952F923F924F925F92C1
:1011C0006F927F928F929F92AF92BF92CF92DF9257
:1011D000EF92FF920F931F93CF93DF93CDB7DEB7BC
:1011E00028970FB6F894DEBF0FBECDBF2C01DC01EF
:1011F0001A960D911C911B970E943205F801C08030
:10120000D180E280F3804B015C018C189D08AE0810
:10121000BF08C480D580E680F780C814D904EA04EA
:10122000FB0448F46083718382839383F201948585
:1012300081E089278487D2011C968C911C97882392
:1012400009F4D2C0ED91FC910484F585E02DC20132
:1012500009953C011C01B4E02B0E311CD201ED912B
:10126000FC910284F385E02DC20109957C01FC010B
:101270003996FA83E983A301435F5F4F21E0BF0101
:1012800084EE97E00E94CF07A3014550510921E069
:1012900069817A8184EE97E00E94CF07B7016E5E84
:1012A0007F4F21E0A10184EE97E00E94CF0721E06B
:1012B000A101B70184EE97E00E94CF0781E090E0A2
:1012C0009C838B8300E010E0A9E0B0E0B887AF8397
:1012D000EEEEFFEFFE83ED8328EF422E55245A9465
:1012E0000F5F1F4FEB81FC813296FC83EB834E0E28
:1012F0005F1E4801F9E08F0E911C8E0C9F1C21E0AF
:10130000AF80B884A20CB31CA501B40184EE97E0B1
:101310000E94CF0789E0C82ED12CC01AD10ACE0C6A
:10132000DF1C21E0A501B60184EE97E00E94CF0703
:1013300021E051018F819885A81AB90AA501B4014D
:1013400084EE97E00E94CF0721E0A501B60184EE6C
:1013500097E00E94CF07680194E0C90ED11CC60C2B
:10136000D71C21E0A60189809A80AF81B8858A0EBA
:101370009B1EB40184EE97E00E94CF0721E0A601F6
:10138000C980DA80EF81F885CE1ADF0AB60184EED3
:1013900097E00E94CF0794E0A92EB12CA01AB10AC1
:1013A000A60CB71C21E0A501B40184EE97E00E94D1
:1013B000CF0721E0A501B60184EE97E00E94CF0798
:1013C0008F819885081719077CF457FC89CF8F8186
:1013D0009885019798878F83AD81BE811296BE83D1
:1013E000AD834A0E5B1E7CCF28960FB6F894DEBF05
:1013F0000FBECDBFDF91CF911F910F91FF90EF9066
:10140000DF90CF90BF90AF909F908F907F906F9024
:101410005F904F903F902F900895CF93DF93EC0112
:101420004B960E94DC08CE010A96DF91CF910C9476
:101430003E0502970C940D0A02970C94DC08FC01FF
:101440008091F301811103C08FEF9FEF08959FB743
:10145000F89482E08093E9002091F20030E01216C7
:10146000130614F421E030E02115310559F02898D5
:1014700084E68093F2018091F10080838091F200F4
:10148000882319F09FBFC90108958BE68093E80077
:10149000F9CF2FB7F89483E08093E9009091E800AA
:1014A000892F807295FF04C09091F20080E4891B1F
:1014B0002FBF0895CF93DF931F92CDB7DEB7698317
:1014C000DC01ED91FC910280F381E02D41E050E0E0
:1014D000BE016F5F7F4F09950F90DF91CF91089507
:1014E00083E08093E9008091F200882319F08AE379
:1014F0008093E80008950E94490A90E00895CF93F0
:10150000DF931F92CDB7DEB7FC018485958597FDEB
:1015100005C02FEF3FEF358724870BC0CE01019622
:101520000E941F0A019719F4898190E002C08FEF91
:101530009FEF0F90DF91CF9108950F931F93CF935B
:10154000DF931F92CDB7DEB78C01FC0184859585B2
:1015500097FF0EC0CE0101960E941F0A019719F451
:10156000298130E002C02FEF3FEFF8013587248753
:10157000F801848595850F90DF91CF911F910F9190
:101580000895FC018485958597FD0BC09FB7F8945D
:1015900082E08093E9008091F2009FBF90E0019685
:1015A00008959FB7F89482E08093E9008091F2005B
:1015B0009FBF90E008958F929F92AF92BF92CF927B
:1015C000DF92EF92FF920F931F93CF93DF935C0113
:1015D0006B017A0180910701882309F45BC0809137
:1015E000F301882309F456C08091F10180FF05C002
:1015F0008091E00082608093E000E70110E00AEF54
:1016000083E0882E9AE3992E2097D9F10E94490A07
:1016100081110AC0015009F43DC061E070E080E032
:1016200090E00E94F804F0CF282F30E0C217D307D3
:101630000CF48C2F4FB7F8948092E9009091E80059
:1016400095FF1DC0282F30E0C21BD30BF601982F49
:10165000915020F081918093F100FACFC20ED31EF9
:10166000112319F09092E80009C08091E80085FDEF
:1016700006C09092E80011E0209709F010E04FBFFB
:10168000C3CF1111C3CF5D9884E68093F0011E147F
:101690001F0444F081E090E0F5019383828380E0B1
:1016A00090E001C0C701DF91CF911F910F91FF9092
:1016B000EF90DF90CF90BF90AF909F908F90089564
:1016C00080E0E4EFF1E081118FEF002481938193BA
:1016D000819381930394D1F70895EF92FF920F9332
:1016E0001F93CF93DF937C018B01040F111DEB013E
:1016F00077FF0EC0C0E0D0E00BC0C217D3077CF468
:1017000021E0AE01B70184EE97E00E94CF07219659
:101710009801013411058CF320E430E0EECFDF9125
:10172000CF911F910F91FF90EF900895EF92FF924C
:101730000F931F93CF93DF937C01EB01042F122FA4
:1017400040FF0DC041E0420F01960E946D0B43E047
:10175000410FBE0161507109C7010E946D0B01FF6D
:1017600015C041E0410FBE01C70101970E946D0BFA
:1017700043E0410FBE0161507109C701DF91CF9174
:101780001F910F91FF90EF900C946D0BDF91CF9113
:101790001F910F91FF90EF9008958091F4018EBDFD
:1017A000E5EFF1E081910DB407FEFDCF8EBD85E040
:1017B000E43FF807B9F70DB407FEFDCF0895809117
:1017C000020881110DC082E08093FE0784E08093BF
:1017D000FF07109201081092000881E08093020830
:1017E0008EEF97E0089540915E0850915F08209138
:1017F0005C0830915D0842175307B4F49091E800FB
:101800009570E1F39091E80092FD19C08093F1008A
:1018100080915E0890915F0801968F739927892BBC
:1018200019F48EEF8093E80080915E0890915F0834
:10183000019690935F0880935E0881E0089580E0B0
:101840000895DF92EF92FF920F931F93CF93DF9350
:10185000D82E8A017B01E40EF51EEB01CE15DF05C3
:1018600071F0D7FE03C0FE01849101C088810E94FF
:10187000F30B21968111F2CF8FEF9FEF01C0C801CA
:10188000DF91CF911F910F91FF90EF90DF9008951E
:10189000615030F02091F100FC0120830196F8CFD7
:1018A000289884E68093F20108950F931F93CF93B5
:1018B000DF931F92CDB7DEB782E0898342E450E028
:1018C0006FE077E080E80E94210C0E94DF0BDC01D2
:1018D00012960D911C9113970115110569F0D8010D
:1018E000ED91FC910280F381E02DBE016F5F7F4F8F
:1018F000C801099597FF07C089810F90DF91CF91AB
:101900001F910F910895F80100851185E5CF1F9271
:101910000F920FB60F9211248F939F938091E10045
:101920009091E100937F9093E10083FF0FC01092AC
:10193000E90091E09093EB001092EC0092E3909319
:10194000ED001092F30198E09093F00082FF20C028
:1019500093E09093E9009091F200992319F09AE3B3
:101960009093E8009091F001992339F09091F00163
:1019700091509093F001992389F19091F20199236C
:1019800039F09091F20191509093F201992341F135
:1019900084FF10C08091E2008E7E81608093E2001F
:1019A0008091E1008F7E8093E1008091F1018E7E35
:1019B000806111C080FF16C08091E2008E7E806140
:1019C0008093E2008091E1008E7E8093E10080911F
:1019D000F1018E7E81608093F10104C05D9ACDCFCC
:1019E000289AD6CF9F918F910F900FBE0F901F9086
:1019F00018951F920F920FB60F921124CF92DF927B
:101A0000EF92FF920F931F932F933F934F935F9308
:101A10006F937F938F939F93AF93BF93EF93FF93B6
:101A2000CF93DF93CDB7DEB76C97DEBFCDBF1092FB
:101A3000E9008091E80083FFEDC168E0CE014596A2
:101A40000E94480C82EF8093E8008D8987FF05C0D3
:101A50009091E80090FFFCCF03C09EEF9093E800C8
:101A6000982F907609F0C6C09E892F89188D911104
:101A70000CC0803829F480915B088093F10002C08B
:101A80001092F1001092F10048C1422F50E0512B0A
:101A9000913051F4811141C14130510509F03DC1EE
:101AA00080915B088D7F0BC0933061F4811135C14B
:101AB0004130510509F031C180915B08826080930B
:101AC0005B082BC1953041F48091E80080FFFCCF8A
:101AD00020682093E30021C1963009F05FC0EB8CB1
:101AE000FC8C1092E90010925F0810925E08123090
:101AF00091F510925D0810925C080E94550C99E0D7
:101B0000BE016F5F7F4FDB01E92F1D92EA95E9F778
:101B100099831A8391E09E8390EA98879AEF998738
:101B200020915E0830915F08275F3F4F3C832B83F5
:101B30008D831092E90010925F0810925E08F09277
:101B40005D08E0925C0849E050E080E00E94210CD2
:101B50000E94550CE2C0F0925D08E0925C080E9481
:101B6000DF0BDC011296ED90FC901397E114F10469
:101B700009F4C0C0D701ED91FC910480F581E02DFE
:101B8000BE016B5E7F4FC7010995009719F00CF0FD
:101B9000C4C0C7C0F701E084F184E8CF973009F4EE
:101BA000C0C0983021F481E08093F100B6C0993034
:101BB00009F0B3C0837009F0B4C0EDECF1E081E04E
:101BC00021E036E39081992361F08093E90020932E
:101BD000EB0091919093EC003093ED008F5F873094
:101BE00089F78EE78093EA001092EA008F8980934C
:101BF000F30193C08B8D9C8D1092E90010925F08C9
:101C000010925E0890935D0880935C08898D811125
:101C100056C08E899D89913A59F4813209F081C06C
:101C200047E050E060E071E080E00E94210C75C068
:101C3000913209F076C0833289F4888D90E0982F34
:101C400088272F89822BA0E0B0E080930801909331
:101C50000901A0930A01B0930B015FC0803269F4BF
:101C60008091E80082FFFCCF67E080E091E00E9475
:101C7000480C8BEF8093E80006C0823209F04DC01B
:101C80008F898093070180915A08882319F0EEEF1D
:101C9000FAE002C0E0E0F8E08091000190910101DB
:101CA000A0910201B0910301803B9440A105B105D0
:101CB00009F07BC08091070180FF93C076C00E942D
:101CC000DF0BDC0112960D911C9113970115110584
:101CD00041F1D801ED91FC910190F081E02DBE0120
:101CE0006B5E7F4FC8010995811117C0F80100850F
:101CF0001185ECCF113009F44EC0133091F48F8967
:101D0000882309F445C0823081F440E860E183E72C
:101D100097E00E94CE13882321F08EEF8093E80095
:101D200079C081E28093EB0075C0813029F440E8EE
:101D30006BE087E697E0EDCF833099F70E94DF0BE9
:101D4000DC011296ED90FC9013978E010F5F1F4FF0
:101D50006801E114F10479F0D701ED91FC9106805E
:101D6000F781E02DB801C7010995080F111DF70192
:101D7000E084F184EECFD8011C92F601019000209E
:101D8000E9F73197BF016C197D0940E0C601C1CF69
:101D900061E577E002C065E577E06115710509F25C
:101DA000FB01449150E080E840CF0FB6F894A8952D
:101DB00080916000886180936000109260000FBE87
:101DC000A895EE3F2AE0F20739F08091FE0A909143
:101DD000FF0A91838083A1CF1092FF0A1092FE0A1E
:101DE0009CCFEE3F8AE0F80731F08081918190939B
:101DF000FF0A8093FE0A87E797E7918380839BE041
:101E000088E10FB6F894A895809360000FBE909378
:101E1000600083CF6C960FB6F894DEBF0FBECDBFC7
:101E2000DF91CF91FF91EF91BF91AF919F918F91F2
:101E30007F916F915F914F913F912F911F910F91E2
:101E4000FF90EF90DF90CF900F900FBE0F901F90FC
:101E50001895789484B5826084BD84B5816084BD12
:101E600085B5826085BD85B5816085BD80916E0038
:101E7000816080936E001092810080918100826069
:101E800080938100809181008160809381008091A6
:101E900080008160809380008091910082608093B7
:101EA00091008091910081608093910080919000D9
:101EB0008160809390008091C10084608093C10014
:101EC0008091C10082608093C1008091C1008160D7
:101ED0008093C1008091C30081608093C300809192
:101EE000C00082608093C0008091C20081608093B6
:101EF000C20080917A00846080937A0080917A0099
:101F0000826080937A0080917A00816080937A0069
:101F100080917A00806880937A001092F301109289
:101F20005B081092F1018091D70081608093D70007
:101F300080EA8093D80089B5806189BD89B58260C7
:101F400089BD09B400FEFDCF61E070E080E090E063
:101F50000E94F8048091D8008F7C80618093D80023
:101F60008091E000807F8093E0008091E1008E7E90
:101F70008093E1008DE08093E200559A209AEEEF85
:101F8000FFE7859194918B3F9C4D19F481E08093FC
:101F90005A0881EC80937C0085B1806F85B92498C4
:101FA00084B1866E84B95E9A5F988AB1806D8AB971
:101FB000769A6E9881B3806F81BB899880B38D705B
:101FC00080BB80E58CBD81E08DBD85E090E00E9406
:101FD000DB065F9A85E090E00E94DB065E985C98E5
:101FE000CCE5D1E01C2F135FFE0184910E94C9074C
:101FF00021961C13F9CF5C9A81E88093640081E0FC
:1020000080936500C0E0D4E080E00E94C90721977A
:10201000D9F70E94E00687FF1FC05C9885EA0E94FE
:10202000C9075C9A2E982F982D9880916400806241
:10203000809364000E94BE07FDCF2D980E94E006A9
:102040008478843871F00E94E0068471843131F123
:1020500088EC90E00E94DB060E94E00682FDEDCF56
:102060003AC00E94D90688EC90E00E94DB062F98C7
:1020700082E090E00E9467148F3F29F06FEF82E0CA
:1020800090E00E946F1484EF91E00E94DB062F9A8B
:102090000E94E00684788438D9F3D5CF0E94D9060F
:1020A00088EC90E00E94DB062E9882E090E00E948F
:1020B0006714882329F060E082E090E00E946F14AA
:1020C00084EF91E00E94DB062E9A0E94E006847164
:1020D0008431D9F3BDCF0E94D90682E090E00E94FE
:1020E0006714882331F03E9A3F9A81E08093E6019D
:1020F00004C01092E6013E983F982E98CEEEDFEF96
:1021000008E010E00E94E00686FF04C02E9A2F9A95
:102110002D9A8BC0CC3F2FEFD20719F42E9A2F980F
:1021200005C0C831D10511F42F9A2D980E94600B7B
:10213000C03F4FEFD40784F40E94CD0B8BE190E0B9
:102140000E94DB06C03F5FEFD50709F059C08AEF58
:1021500090E00E94DB0654C09E01D7FF04C02227F6
:1021600033272C1B3D0B27703327CE01D7FD079655
:1021700053E0959587955A95E1F7D7FF05C00197EC
:10218000B801621B730B9B017C01F694FE2CEE24BC
:10219000F794E79440E050E04801821A930AF7016F
:1021A000E058FF4F5F018F3FFFEF9F0744F4019618
:1021B000485A5F4F7501403B510589F7BDCFD701A4
:1021C000A857BD4F60E070E08F3FEFEF9E0709F426
:1021D00028C1FB01E40FF51FE455FF4FE4916D01A9
:1021E000CA18DB08CE0CDF1CF0E02F01022E01C064
:1021F000440C0A94EAF7F60170804728408211C126
:102200002196C931D10509F07DCF8CEB92E00E9477
:10221000DB060E94D906E091E407F091E507019002
:10222000F081E02D84EE97E0099582E390E00E9432
:10223000DB060E94E0068111F8CF80E18093EB0776
:102240009FE7A92EB12C2FE3422E512C612C712C2B
:102250000E9432050091F0071091F1072091F207DA
:102260003091F3074091F407442341F02091EC07AB
:10227000621B6093F5071092F407CBC060177107DB
:102280008207930738F4061B023008F4C2C00E948C
:10229000BE07BFC0F1E0F093F4076093EC077093C2
:1022A000ED078093EE079093EF072091EB07DC0199
:1022B000CB01820F911DA11DB11D8093F00790935A
:1022C000F107A093F207B093F3078091E70790918D
:1022D000E80701969093E8078093E7070E94600B58
:1022E0001092F9071092F8071092F7071092F6076C
:1022F000C12CD12C00E010E0E601CC0FDD1FCC0F8B
:10230000DD1FC05ED94FE12CF12CC801805E994FD2
:102310004C01F4E48F1AFEEF9F0A1C0128E4221AF4
:102320002EEF320A97012C0D3D1DF401808190E0C3
:10233000E816F90614F54A815B816881798121E00C
:1023400084EE97E00E94CF07F10120818881998176
:10235000821B91099983888397FF0AC0B982A8825A
:102360000E945914A30192010E947D147B836A8309
:10237000FFEFEF1AFF0A2496D5CF69010F5F1F4FB9
:102380000430110509F0B8CF88EF95E00E94FD06F2
:1023900088EF95E00E940D0A0E94E00683FF37C097
:1023A000C2E0D0E040E26FE170E0CE010E946D0B30
:1023B0002196CE37D105B1F72DE130E041E060E262
:1023C00070E08DE790E00E94960B2DE130E042E056
:1023D00060E270E082E090E00E94960B4AE050E0FC
:1023E0005093F7074093F60768E270E07093F9079F
:1023F0006093F8071092FA0771E07093FB0741E1D0
:1024000050E063ED71E080EE97E00E94EE030E94E1
:10241000CD0B80E090E0892B09F41ACF0E940000D8
:1024200017CF2115310581F0FB01E40FF51FE455AD
:10243000FF4FE491F0E0082C02C0F595E7950A946F
:10244000E2F7DC90ED29EC936F5F7F4F11966835D2
:10245000710509F0B9CEABCE0F931F93CF93DF93E5
:102460008C0181E090E00E94671480FF31C08AE017
:1024700090E00E9467149FEF980F9E3F48F522E37B
:1024800030E0D80157963C932E93569728E330E0DE
:1024900059963C932E935897CBE0D0E0D801ED911C
:1024A000FC910190F081E02D682FC8010995CE01C3
:1024B0000E9467142196C131D10581F70E94CD0B8E
:1024C00088EE93E0DF91CF911F910F910C94DB0682
:1024D000DF91CF911F910F91089504970C942C12C6
:1024E0008CE891E09093F9058093F80584EA91E0F7
:1024F0009093FB058093FA058AEA91E09093FD059D
:102500008093FC058CE591E090931406809313066C
:1025100084E791E090931606809315068AE791E090
:10252000909318068093170680911D0690911E06C1
:102530000E947B158CE291E0909303068093020643
:1025400084E491E090930506809304068AE491E088
:10255000909307068093060680910C0690910D06D5
:10256000009711F00C947B1508958F929F92AF9273
:10257000BF92CF92DF92EF92FF92CF93DF931092B0
:102580000D0810920C0888EE93E0A0E0B0E0809374
:102590000E0890930F08A0931008B09311088AE1D9
:1025A00091E090930B0880930A088FEF9FEF909330
:1025B0001708809316081092E3071092E207109212
:1025C000E9071092EA0720E12093EB079093E807D0
:1025D0008093E7071092F0071092F1071092F2072C
:1025E0001092F3071092F4078CEB91E09093E107BF
:1025F0008093E0078AEC91E09093E5078093E407ED
:102600001092F7071092F6071092F9071092F80748
:1026100081E08093FA071092FB078093FC071092E9
:10262000FD078093D80782E08093D90784E08093E8
:10263000DA0788E08093DB0782E38093DC078EE192
:102640008093DD0784E18093DE078AE08093DF07D3
:10265000C0E2D6E080E8882E912CA12CB12C90E429
:10266000C92ED12CE12CF12C0E945914A501940102
:102670000E947D14798368830E945914A7019601F2
:102680000E947D147B836A83249687E0C83DD80727
:1026900059F78CE891E09093F9058093F80584EA66
:1026A00091E09093FB058093FA058AEA91E090937C
:1026B000FD058093FC058CE291E0909303068093E6
:1026C000020684E491E090930506809304068AE470
:1026D00091E09093070680930606109210068CE511
:1026E00091E0909314068093130684E791E0909311
:1026F0001606809315068AE791E09093180680935A
:10270000170688E090E00E94E61448EC50E060E094
:1027100070E0FC01448355836683778390931E06A3
:1027200080931D0610921F0681E796E090930F0696
:1027300080930E0683E08093110688E090E00E946B
:10274000E61444E650E060E070E0FC014483558309
:102750006683778390930D0680930C0681E08093C7
:1027600012064EE150E06AE070E088EF95E00E94CA
:1027700073040E9432056093F4057093F50580930D
:10278000F6059093F705DF91CF91FF90EF90DF90E2
:10279000CF90BF90AF909F908F900895CF92DF928F
:1027A000EF92FF920F931F93CF93DF931F92CDB7BA
:1027B000DEB7182F062FE42E862F880F8E5F9983A1
:1027C0000E94F30B83E00E94F30BF12EC12E99813E
:1027D000D92E8C2D8F19801798F4F601E7FE02C0D0
:1027E000849101C080810E94F30B182F80E00E9429
:1027F000F30B8123FFEFCF1ADF0A8111EACF01C06B
:1028000081E00F90DF91CF911F910F91FF90EF909A
:10281000DF90CF9008958F929F92AF92BF92CF9208
:10282000DF92EF92FF92CF93DF93EC016881798181
:102830008A819B81611571058105910521F464E20E
:1028400079ED8BE597E02DE133EF41E050E00E9418
:102850007D1449015A019B01AC01A7EAB1E40E9431
:102860009C146B017C01ACEEB4EFA50194010E94B5
:10287000AA14DC01CB018C0D9D1DAE1DBF1DB7FF41
:1028800003C00197A109B04888839983AA83BB83B9
:10289000BC01CD019F77DF91CF91FF90EF90DF904A
:1028A000CF90BF90AF909F908F9008950E940B148F
:1028B00008958CE091E00E940B14089560930C0140
:1028C00070930D0180930E0190930F010895F99973
:1028D000FECF92BD81BDF89A992780B50895262F25
:1028E000F999FECF1FBA92BD81BD20BD0FB6F894F5
:1028F000FA9AF99A0FBE01960895052E97FB1EF4D9
:1029000000940E94941457FD07D00E94AF1407FC56
:1029100003D04EF40C949414509540953095219525
:102920003F4F4F4F5F4F08959095809570956195FB
:102930007F4F8F4F9F4F08950E94D114A59F900DF8
:10294000B49F900DA49F800D911D11240895B7FF91
:102950000C949C140E949C14821B930B0895A1E27A
:102960001A2EAA1BBB1BFD010DC0AA1FBB1FEE1F09
:10297000FF1FA217B307E407F50720F0A21BB30B54
:10298000E40BF50B661F771F881F991F1A9469F7D0
:1029900060957095809590959B01AC01BD01CF012C
:1029A0000895A29FB001B39FC001A39F700D811D28
:1029B0001124911DB29F700D811D1124911D089548
:1029C000EE0FFF1F0590F491E02D0994CF93DF9354
:1029D0008230910510F482E090E0E0916208F0917D
:1029E000630820E030E0C0E0D0E0309711F1408192
:1029F000518148175907C0F04817590761F482817F
:102A00009381209719F09B838A832BC0909363084E
:102A10008093620826C02115310519F0421753072B
:102A200018F49A01BE01DF01EF010280F381E02D6D
:102A3000DCCF2115310509F1281B390B2430310574
:102A400090F412968D919C9113976115710521F068
:102A5000FB019383828304C0909363088093620890
:102A6000FD01329644C0FD01E20FF31F8193919363
:102A7000225031092D933C933AC020916008309147
:102A80006108232B41F420911201309113013093FE
:102A900061082093600820911001309111012115E7
:102AA000310541F42DB73EB7409114015091150105
:102AB000241B350BE0916008F0916108E217F307E1
:102AC000A0F42E1B3F0B2817390778F0AC014E5F9E
:102AD0005F4F2417350748F04E0F5F1F5093610872
:102AE000409360088193919302C0E0E0F0E0CF0151
:102AF000DF91CF9108950F931F93CF93DF930097AA
:102B000009F48CC0FC013297138212820091620892
:102B1000109163080115110581F420813181820F24
:102B2000931F20916008309161082817390779F5C3
:102B3000F0936108E093600871C0D80140E050E074
:102B4000AE17BF0750F412962D913C911397AD012B
:102B50002115310509F1D901F3CF9D01DA01338344
:102B6000228360817181860F971F8217930769F412
:102B7000EC0128813981260F371F2E5F3F4F3183AB
:102B800020838A819B8193838283452B29F4F09350
:102B90006308E093620842C01396FC93EE93129789
:102BA000ED01499159919E01240F351FE217F3075A
:102BB00071F480819181840F951F029611969C93E8
:102BC0008E938281938113969C938E931297E0E06B
:102BD000F0E0D80112968D919C911397009719F00F
:102BE000F8018C01F6CF8D919C9198012E5F3F4F9B
:102BF000820F931F209160083091610828173907D0
:102C000069F4309729F4109263081092620802C0A8
:102C1000138212821093610800936008DF91CF91B4
:102C20001F910F91089581E090E0F8940C9418168C
:102C300013E0C3ECD3E004C0FE010E94E01421962F
:0A2C4000C43CD107C9F7F894FFCF98
:102C4A0000E1000000000000FFFFFFFF010000009C
:102C5A00000064088000000000005A0ADB0A7B0AB0
:102C6A00700AC10A7F0A9D0A00000000AC04E7044A
:102C7A00E604E004D304C904C104B904B1043E055E
:102C8A00FEFF00008C06FCFF0000F304D904CD040B
:102C9A00C504BD04B504AD0400000000AB04E7049C
:102CAA00E604E004D304C904C104B904B104DC088D
:102CBA00FEFF00001C0AFCFF0000F304D904CD0447
:102CCA00C504BD04B504AD0400000000FD069C0463
:102CDA00E6047304D3046F0467045B044B040D0A0F
:102CEA00FEFF0000190AFCFF0000A8049904CD04A5
:102CFA006B0463045304430400000000ED07EE0371
:102D0A0040043F042C12FCFF00006D1200C18081B8
:102D1A000000005761766520417070726F616368C8
:062D2A00696E6721000044
:00000001FF
